:1001CE00E4F593F594F591F592F595F596F5B1F56F
:1001DE00B2F5B3F5B4F5C9F5CAF5CBF5CCF5E1F545
:1001EE00E2758E80758CFB758A80D2A9D28CD2AFC7
:1001FE00759D1075BCE0F521F520C280D281D282AA
:07020E00C290C291C29222CE
:03000300D2902276
:03000B000202549A
:10025400C0E0C0D07521010520E520B460037520FD
:0602640000D0D0D0E03212
:0600CB008B198A1A891B43
:1000D100D291E4F51EF521F51F208275E4F51CF59A
:1000E1001DE5216068E4F521E51D1424F850256023
:1000F100462409704E208205E51CB41005751F01C8
:100101008041AB19AA1AA91B851C82758300E412D0
:100111000090802F30822CE51D14FF7401A8070880
:100121008002C333D8FCAB19AA1AA91B851C82759E
:10013100830012005D800C208205120003800405FB
:100141001C051E051DE51DB40A03E4F51DE51F6030
:0901510090E51F6084C291AF1E0D
:01015A002282
:06015B008B198A1A891BB2
:1001610012026A8F1ED292E4F521F51CE51CC3959B
:100171001E5057E4F51DE52160FCE4F521E51D1451
:1001810024F8500A603724097035C2818031AB19D7
:10019100AA1AA91B851C82758300120030FFE51D78
:1001A10014FEEFA806088003A2E713D8FBFF75F041
:1001B1000212000EAFF0EF24FF92818002D281057E
:0C01C1001DE51DB40AB0051C80A2C2920E
:0101CD00220F
:060215007B007A0079096C
:06021B008B198A1A891BF1
:10022100E4FFAB19AA1AA91B8F82758300E412009F
:05023100900FBF10ED6D
:0102360022A5
:0B028B00E4FFE52070010FBF64F822C3
:100237001201CE1202157B007A0079091200CB7BDE
:0D024700007A00790912015B12021580E9AE
:0300000002027F7A
:0C027F00787FE4F6D8FD7581210202377B
:10000E00C2D530F707B2D563F0FF05F030E70CB27A
:10001E00D5F4048463F0FF05F080018430D502F43A
:02002E000422AA
:10003000BB010CE58229F582E5833AF583E0225085
:1000400006E92582F8E622BBFE06E92582F8E222CF
:0D005000E58229F582E5833AF583E49322E9
:10005D00BB010FF8E58229F582E5833AF583E028A7
:10006D00F0225009C58229F8E58226F622BBFE0949
:10007D00C58229F8E22582F222F8EA2583F583E983
:03008D0093282293
:10009000F8BB010DE58229F582E5833AF583E8F0A6
:1000A000225006E92582C8F622BBFE05E92582C852
:0200B000F2223A
:10026A00E4FFFE1200B2600C0FEF70010E09E97094
:05027A00F20A80EF22F2
:1000B200BB010689828A83E0225002E722BBFE024C
:0900C200E32289828A83E493227F
:00000001FF
